:020000041000EA
:1000000000B5324B212058609868022188439860DF
:10001000D860186158612E4B002199600221596106
:100020000121F02299502B49196001219960352056
:1000300000F044F80222904214D00621196600F024
:1000400034F8196E01211966002018661A6600F04E
:100050002CF8196E196E196E052000F02FF8012189
:100060000842F9D1002199601B49196000215960AB
:100070001A491B48016001219960EB211966A021F2
:10008000196600F012F800219960164914480160C1
:100090000121996001BC002800D000471248134993
:1000A000086003C880F30888084703B5996A0420EC
:1000B0000142FBD001200142F8D103BD02B5186610
:1000C0001866FFF7F2FF186E186E02BD00000240BE
:1000D000000000180000070000035F00212200005C
:1000E000F4000018222000A00001001008ED00E03C
:1000F00000000000000000000000000074B24E7A12
:1001000000200420F7010010C3010010C5010010F9
:10011000C1010010C1010010C1010010C101001097
:10012000C1010010C1010010C1010010C701001081
:10013000C1010010C101001001BD0210CB0100106F
:10014000CD010010CD010010CD010010CD01001037
:10015000CD010010CD010010CD010010CD01001027
:10016000CD010010CD010010CD010010CD01001017
:10017000CD010010CD010010CD010010CD01001007
:10018000CD010010CD010010CD010010CD010010F7
:10019000CD010010CD010010CD010010CD010010E7
:1001A000CD010010CD010010CD010010CD010010D7
:1001B000CD010010CD010010CD010010CD010010C7
:1001C00000BE00BE00BE00BE00BE00BEEFF3058054
:1001D000103800BEF2EB8871BC13071090140710A2
:1001E0003402001090A31AE700201F49086006C8D7
:1001F00081F3088810471D48006800282FD10DA4FE
:100200000ECC002902D000F012F8F9E71849194A7B
:10021000002000E001C19142FCD1174988471749ED
:1002200088471749884700BEFDE701C901C29A42C5
:10023000FBD3704790140710C00000202443002017
:10024000F45607100000042000000420F4560710A4
:10025000001004200010042000000000704709482E
:1002600030F09FFB0047000008ED00E0000000D0E8
:1002700028430020B0580020712903109DB60210B9
:10028000412A03105756000006005250ABB360538A
:100290000D13071006005250861C030284460410FA
:1002A000060052505422A29D181307100500525008
:1002B000DE65F468F4560710F8B5C0460448054BEF
:1002C00010B5834203D0044B002B00D0984710BDDB
:1002D0002443002024430020000000000648074972
:1002E000091A8B10C90FC91810B5491003D0044B57
:1002F000002B00D0984710BD244300202443002049
:100300000000000010B5074C2378002B09D1FFF73F
:10031000D5FF054B002B02D0044800E000BF0123AD
:10032000237010BD304400200000000088930310AB
:10033000054B10B5002B03D00449054800E000BF71
:10034000FFF7CCFF10BDC046000000003444002081
:1003500088930310030020B5500C1500520892B288
:10036000002904D0E90702D40B4818F0BBFF9042E3
:1003700006D198420FD002000849094817F0CCFF77
:10038000984204D9C21A0749054817F0C5FF9A4296
:1003900001D20549F1E720BD88930310B093031003
:1003A00084C10310E99303101B940310F0B50025DA
:1003B000170087B00C9C0D9E039004910593029545
:1003C0000195059B9D4206D1019B039A93423AD227
:1003D000214818F087FF039B9D4211D263889B053B
:1003E000F6D4019B049A01330193AB00D058FF224D
:1003F00063881340012B20D10DF0B2FF307013E061
:10040000022321880022C9003800194309F0C2FAEA
:1004100000280DD16388DB0504D522880F491048D8
:1004200017F07AFF63683360013508340436C8E793
:10043000029B406801330293D9E7022B01D10DF0F2
:1004400041FE3060F0E73B68029ADB08934201D935
:100450000448BEE707B0F0BD619403104A9403104E
:1004600084C103108294031070B515001E000400AF
:1004700086B08200AA1803A809F060FA0B9B290035
:1004800001930A9B2000009303AA3300FFF78EFF1D
:1004900006B070BD10B5014818F046FFA0940310D7
:1004A00010B504000161880009F002FA606110BD16
:1004B00010B50400002902D0C06809F02DFA606967
:1004C00009F02AFA10BD70B504000D0001290BDCFB
:1004D00001210369494240699A0036F0E3FF002395
:1004E00025706370636070BD406809F0E1F963686E
:1004F000E060A360F3E730B5030044780020844255
:1005000008D11D7820005A68022D01D1D8688018C2
:100510008918596030BD002343700378012B03D83C
:10052000426843698900CA50704742684B1E9B1855
:10053000494219404160704770B50C001500FFF743
:10054000DAFF0419002803D170BD05702D0A0130AF
:10055000A042FAD1F8E710B50C000221FFF7CBFF5B
:10056000002802D00470240A447010BDF8B50500BC
:1005700003290DD80024104B5F5CB5210902280027
:100580003943FFF7E8FF261E0DD1AF61EC61F8BDDE
:100590000123023999430C00FE27EEE728000749A2
:1005A000FFF7D9FF7F3E7F2EF8D805492800314359
:1005B000FFF7D1FFE9E7C04616950310FFB0000032
:1005C00080B0000070B5C5690400002D07D07F2DF4
:1005D0000DD8B021090220002943FFF7BCFFBD213F
:1005E000A369090220001943FFF7B5FF70BD200081
:1005F0000249FFF7B0FF7F3DE9E7C0467FB000004A
:10060000F7B5FF270B020E00111239400193194371
:1006100080239B01194305001400FFF79CFFF100A4
:100620000E438021890028003143FFF794FFC02149
:10063000019B3C401C43890128002143FFF78BFFAD
:10064000F7BD70B50D0004211400FFF754FF00281A
:1006500005D0057084702D0A240A4570C47070BDE1
:1006600010B5DB0011431943FFF775FF10BD10B53E
:10067000072A09D8D20007290BD80A438C21C901BF
:100680001143FFF768FF10BD083AD30040221A4318
:10069000F1E7083911438022EFE7F7B505000C00B8
:1006A0001600072913D8072A11D81F00089A974067
:1006B000FF2F0DD8B14202D03200FFF7D8FFC02182
:1006C00024022743890139432800FFF744FFF7BD7F
:1006D000CA0001921900FF22914318D1B44223D0DD
:1006E00021020B43802189011943FFF734FF089B46
:1006F000280099012143E3001943FFF72CFFE30091
:10070000B10119430C43C02149012143DCE7B44244
:100710000AD021003A00FFF773FFA1012143C02452
:10072000019B64011943F0E7072601216640B140AF
:100730000091B421009B090219432800FFF70BFF29
:100740003A0031002800FFF75BFFB1012143C024CC
:10075000019B6401194321432800FFF7FCFEBC21E3
:10076000009B09021943AFE74369890070B5CC5873
:10077000E021050043680902E41A043C23055B0DEF
:100780001943FFF7E8FE2B780120022B08D1E40A79
:10079000E302002C04D080221201981843425841F1
:1007A00070BDF8B5050000200F0083421AD16B69B7
:1007B0009200D4586B68FF26E41AD023043C6110E1
:1007C00031403F021B02394328001943FFF7C3FEA3
:1007D0002B780120022B05D1B44303D0601CFF30DD
:1007E00043425841F8BD4369F822890070B5CC589E
:1007F000F021050043681202E41A043C63109BB226
:100800001A4363025B0D09021943FFF71AFF2B78A5
:100810000120022B08D1A40DA305002C04D08022B6
:10082000D20398184342584170BD0000F8B547689C
:1008300004000E001500BB0703D5BF210902FFF716
:100840008AFE90213602C90131432000FFF783FE62
:1008500020000649FFF77FFEA9B22000FFF77BFECC
:100860002000290CFFF777FE3800F8BD01E00000FA
:10087000F7B506000C00170007290AD8FF239A4392
:1008800007D10C028021274389013943FFF763FE1A
:10089000F7BDFB17FD185D40280032F0FBF8002380
:1008A000019000939F4203D0280032F0F9F80090A5
:1008B000009B01989C46604417281AD91D41E9B253
:1008C000250229438025AD0130002943FFF743FE6F
:1008D000009BE0002043990101433000FFF73BFEFD
:1008E000002FD5DA2300220030000A49FFF7B8FEB6
:1008F000CEE72B0C05D12A0021003000FFF780FE47
:10090000EEE7002F00DA6D422A0021003000FFF7E9
:100910008DFFBDE74042000010B50B0001780129B2
:1009200006D9FF211C008C4302D0064818F0FCFCBD
:1009300011029022DBB2194312021143FFF70BFEA2
:1009400010BDC046DE94031010B50378012B06D904
:10095000FF2314009C4302D0054818F0E5FCD2B2F6
:1009600009021143982212021143FFF7F4FD10BD52
:10097000DE940310D2B209021143A82210B512026C
:100980001143FFF7E8FD10BD43699200D358426858
:1009900070B59B1A01221A430C3A0C000500FFF7B0
:1009A0002FFEB2212200280023000902FFF758FE83
:1009B000802321011940793B1C400C430249280047
:1009C0002143FFF7C8FD70BD7844000037B504002F
:1009D0000D0007290ED8072A0CD81F2B0AD8D100E2
:1009E000D02229439B011943D20111432000FFF774
:1009F000B2FD37BD0221200000911F3B2900FFF707
:100A00004CFEE9000D4301492943EFE7C06F0000A8
:100A10004369890010B5CC584368E11A0439CB0A00
:100A2000DB02621C0CD0CA1C0ADA0E4A934215D1B2
:100A3000E0230905490D1B021943FFF78CFD10BD8A
:100A4000002BF5D0074A9342F2D0BF210902FFF7ED
:100A500082FD631CF3D0044818F066FC002BF4D12F
:100A6000E6E7C04600F8FFFF0095031070B50400EC
:100A7000930015004269985863680A02C31A043B40
:100A8000411C11D0D91C0FDAFF201E000D498643EE
:100A90008E4209D15910D023014011431B0220007E
:100AA0001943FFF758FD70BD802149004A40D0210D
:100AB000090220001143FFF74EFD29002000FFF737
:100AC000A7FFF0E700FFFFFF043A52100902D2B27D
:100AD0000A43D02110B509021143FFF73CFD10BDB8
:100AE000E02310B5043909051B02490D1943FFF72E
:100AF00032FD10BD70B514000B0007222100050067
:100B0000FFF764FFE1008F24E40128002143FFF791
:100B100022FD70BD73B50B0069464C1D21007F2678
:100B20001500013C35402570D209F9D1091B9847C1
:100B300000280AD080260200230001AD7642AB4295
:100B400004D16A4612791B1BC25473BD1978013354
:100B5000314311700132F2E7030030B502687F249F
:100B600000201178C0010D0049B225400132284310
:100B70000029F6DB1A6030BD07B5019001A8FFF728
:100B8000EBFF0EBD037801307F2BFBD870470000D0
:100B9000F0B595B00C9303680B92069383890E0011
:100BA0000A93436807005A1C426003221B78012104
:100BB0001A4001920022042504920392029278685E
:100BC0005BB2441CA446002B1EDB3F220023012005
:100BD0009446062509930D937A68099C511C796007
:100BE00012781100014099400C4309946446511059
:100BF00021402C005C43A1400D9C52B20C430D944B
:100C0000002A1EDA0133E7E763467B600378029C23
:100C100098110840904004431800284090400294E6
:100C2000019C0443D810084090400194039C044365
:100C30001800084090400394049C0132044304943B
:100C4000BDE70021BB68F9810793043305930A9B34
:100C500005989B001A00089336F024FC019A0A9B21
:100C60009B1A039A0F939D1A013D059BAD005D19D8
:100C70000423029A1340019AB24200D373E0002B7E
:100C800004D133009B499C4817F046FB2B1F1C00E6
:100C9000019B99000C9B5918019BF01A14F03CFE23
:100CA00028602500019B0C9A079908989B00091859
:100CB0009B189A4200D07EE00823029A13400B9AB8
:100CC00010931A430223002A00D1F7E00022029C6D
:100CD0000E92029A1C4011941A4204D00B980EF006
:100CE000F1FF0E9028600C9BB4001C1900230293A6
:100CF000029B0B9A934262D10F9B06999D00059B24
:100D0000049C5A19049B03339B00C8181100002C43
:100D100000D097E005990C3B8C46D318089A6244A2
:100D20009A4200D997E07868FFF72CFF00261390CD
:100D3000019BB34200D098E0079B5D19039BA3423F
:100D400000D098E07B680D9D9C4665442E00099B71
:100D50005B190193019BB34200D0BEE0099BED18E3
:100D60007D6015B0F0BD002B02D0644B043D6B607C
:100D70000823029A13400B9A134314D1019B049A3F
:100D80009A1AB24200D97CE7049B019A9B199B1ADC
:100D9000069A9B000899D318079A501832000199B7
:100DA0000433914201D133007DE79100DC68494270
:100DB00044500132F3E701CA0439486079E77B689F
:100DC000002618001393FFF7DDFE25681390019BA2
:100DD000039A9B18B34205D8119B002B26D1484992
:100DE000EA0817E013A8FFF7B7FE0222069B4000AF
:100DF0005B689B68C35ADB0013439D4214D10A9B76
:100E0000013B9E1B9640059B9E193368002B04D026
:100E10003C49EA08384817F07FFA63683360029B60
:100E200008340133029363E70136D0E70E9B0122B9
:100E3000181D290008F0AEFD4368002BE8D1636857
:100E40004360ECE70E68002E01D106680E60013C9D
:100E5000043104385BE70433191F0968002900D006
:100E60005EE7D21A28499210D4E71398FFF78AFE5A
:100E7000013613905CE713A8FFF76EFE2A68002A7C
:100E800016D1069B40005B689B68C65A109B002BDE
:100E900011D00223F1001943049B069804339B00F0
:100EA0001858043008F076FD002804D043682B6001
:100EB0000134043D42E732001449ABE7039A002AAB
:100EC00002D0134818F00EFA029A1A4200D139E7FC
:100ED00003980EF0F7FE286034E70A9B5C1E337817
:100EE0000136E41A059BA4001C1920680EF0AEF828
:100EF00020602FE7B093031084C1031050D6031075
:100F0000499503101A9503106A9503109C950310D8
:100F1000CC95031010B50468E468446004001034F4
:100F20008460FFF735FE10BD70B50568EC68AD68EC
:100F30002468002C01D0A4006559040010344560D9
:100F40008460FFF725FE70BD10B5402828D051D829
:100F5000022398433C284DD1423908002F2949D813
:100F600038F06AF94648484848484B1848481848F5
:100F70004818184E4818484848484848484848487B
:100F80004848484846484E4B18484B184848184867
:100F90004848484E01210420002A00D0116010BDAD
:100FA000012923D04239CBB208002F2B22D82F2978
:100FB00020D838F041F91D1F1F1F1F1F1A181F1FAF
:100FC000181F1F1818281F181F1F1F1F1F1F1F1F44
:100FD0001F1F1F1F1F1F1D1F281A181F1A181F1F32
:100FE000181F1F1F1F280421D5E702210800D3E77F
:100FF0000121FBE7054817F09DFF01210220CBE707
:1010000001210820C8E70821F0E7C046F395031046
:1010100010B5512812D8412803D8012823D0002325
:101020001DE042380F28FAD838F0CEF81DF9F9F94A
:10103000F9F92225F9F925F9F94447316238C3B2A3
:101040000F2BECD80F28EAD838F0BEF808E92DE9C4
:1010500028E90F37E9E937E9E9E9E91A8B56012070
:101060005B0018430BE08B5CF9E75200535EF6E738
:101070005200535AF3E79200505810F0FBFA10BD9B
:10108000D2008A181068516810F05DFAF7E7D200B4
:101090008A181068516810F071FAF0E79200505801
:1010A0000FF0A2FAEBE7D2008A181068516832F00C
:1010B0004FF8F5E792005058E1E79200505810F0D1
:1010C00051FADCE7F7B507000C000126002A02D12F
:1010D000421E9B18023E00200021002C06D0002258
:1010E00000259A56D40F00216042A941002211E048
:1010F000040E00940C020194040225001C780132B5
:10110000A4462C0065462C432000009D019C9B19A1
:1011100025432900BA42EBD103B0F0BDF0B585B04C
:10112000019203AA04000D001F001E68FFF70CFFC8
:10113000402C09D1039B019A043CB61A5A1EB218DE
:101140005E42019B16409E195A2133183E3C3B607B
:10115000A942894163425C4149423300E2B2FFF750
:10116000B1FF06000F004F2D07D0532D07D138F0E7
:10117000BBF80100300012F039FD05B0F0BD652D5F
:1011800022D1B3057604FF2280B29B0DF60E1F2EEE
:1011900002D0321E09D07032C00BC007D2051043F6
:1011A0005B0318430FF020FAE7E7002BF4D080250B
:1011B0007024ED00590022008BB2013C2942F9D085
:1011C00016495B189BB2E7E7662DEBD0642D02D180
:1011D00031F0BEFFE6E75A2D13D980220023D20555
:1011E00092197B4130001100002B06D180231B0691
:1011F000994202D210F0B6F9BFE7390010F0A3F916
:10120000BBE7002906D18023DB05984202D210F00B
:1012100031FAB2E7390010F0B1F9AEE700FCFFFF98
:1012200013B5040001931000002904D1220001A984
:1012300036F03EF913BD01AB1B191419A042F9D0C9
:10124000013B1A7802700130F8E70000F0B589B070
:101250001F000E9B140005AA1D6802900191FFF764
:1012600073FE029B0600402B08D1059BED1B5A1E06
:10127000AA185D423C2315407D1902930E9AAB19C2
:101280001360029B3E3B03935F425F41019BFFB2B1
:10129000652B1CD013D84F2B45D0642B55D0A307FA
:1012A00000D070E0414B22689A4200D06BE02B00E6
:1012B00032003900200010F0F6F809B0F0BD019BB3
:1012C000662BECD120000CF053FF04002BE0200033
:1012D0000CF04EFF4402A40DC30400D50134C10D2F
:1012E000C9B21F23FF2918D00023994215D0703BA3
:1012F000CB1822D50B3325DB80227023D20022436A
:10130000591A92B20A410121130094B2CC400B4009
:101310000A4202D000236418A4B2C00FC0030443E1
:101320009B021C43A4B23000042E00D904202300E9
:101330002A003900FFF774FFBFE73F2BEDDD1F23C5
:101340000024EAE700242300E7E720000CF010FF68
:1013500032F066FB1024BB00069007911B1904AA0B
:101360009B18083B2A001B6839000420FFF758FF30
:10137000039B04355A1E93419B001B1904AA9B181A
:10138000083B1C68CFE720000CF09CFE0400042EF4
:10139000C9D9C11732002800C9B236F083F8029BC0
:1013A0003E2BC0D1331FED18BDE7C046A8C50310C2
:1013B00070B50C00712807D8612806D801281DD007
:1013C0004238C1B20F290DD970BD62380F28FBD841
:1013D00037F0FAFE14FA25FA1FFA162DFAFA2DFA4A
:1013E000FAFAFA190F28EFD837F0EEFE08EEEEEE13
:1013F000EEEE0A21EEEE21EEEEEE210DA354E3E730
:1014000052001353E0E7D200A4182360DB17636097
:10141000DAE71800950032F099FA6051D4E7D2006B
:1014200018008C1831F04CFE20606160CCE792000F
:101430001351C9E7F7B506000F0014001D0064281A
:101440000DD0662804D04F2813D19400E35105E055
:10145000940018000F190CF08BFE3860F7BDD40013
:1014600018000F190CF084FE32F0DAFA3860796057
:10147000F4E703232A001A4001921D4211D10E4BBA
:101480002A689A420DD10100019A4020FFF75CFDC5
:1014900023004343020001992800FB1810F003F8D1
:1014A000DCE728000CF00EFE2200030039003000BB
:1014B000FFF77EFFD2E7C046A8C5031073B50C0046
:1014C00001A9206812F08EFF0500606812F00AFF83
:1014D00029000023019A08F0BBF90500A06812F06A
:1014E00001FF512807D00D4B984213D0502813D03C
:1014F0000B4817F01FFD01260A4908200CF015FDC6
:1015000000230400310028001A0017F00FF8606073
:10151000200076BD0026EFE70226EDE75B03000022
:101520000096031044960310D0231B061B68F0B5E9
:101530001500344A9B009B5885B01A699446DA68B6
:1015400001281BD94C68062C15D0A60710D12E4EA9
:101550002768B7420CD12600022811D088680628D7
:101560000ED0860704D1060007682748874207D0B7
:10157000002017F0B7FE16006446EDE7160064463B
:101580000F6803210F4222D12049386888421ED1BA
:1015900061460392029168461C61DE601C490CF0B2
:1015A00053FC03237868184208D10368194A934210
:1015B00002D0194A934201D143685C6016F0AEFF35
:1015C000040001200CF04EFC200005B0F0BD002D01
:1015D0000CD1380012F086FE08F047F901352200E0
:1015E0003300290016F0A2FF0400EDE7694605224A
:1015F00038000CF0B5FF0023019A0099DF2008F0B5
:1016000027F9ECE7DC48002070BD03104496031076
:10161000BD7F0110D0C2031068C3031010B50222B1
:10162000FFF782FF10BD10B50122FFF77DFF10BD4F
:1016300010B50022FFF778FF10BD70B506000D0051
:1016400000246B68A34200D870BDAA68E3009958D3
:10165000002904D0042902D0300010F01DFA013412
:10166000EFE70000F0B587B0002806D1544955488F
:1016700009F08CFF062007B0F0BD0E68524B9E4269
:1016800056D10021080010F000FC50490390FFF7EC
:10169000D4FF4F490398FFF7D0FF039F4D4E357895
:1016A000002D14D14C4A03A9012010F0E9FA039847
:1016B00005AA04A910F000FC049B03339B080193C6
:1016C000019B404EAB4211D130004449D0E730007D
:1016D00037F00AFEC11E0400300012F087FA013410
:1016E0000100380010F0D8F93619D8E72F00059A14
:1016F000BB00985812F00CFE0100300009F046FFC4
:10170000019BFF18049B9F420CD212231C1A002C31
:1017100006DD013CEBD33000314909F037FFF8E733
:101720001234F4E730002F4909F030FF0135C7E7E4
:1017300030000CF007FC0400224D2B49280009F072
:1017400025FF002130000CF02FFC2800E2882749FB
:101750000AF0B0FA264B9C4224D174680026043467
:1017600063689E4200D385E7A268F300D3181F6820
:10177000002F15D05B681F492800019309F006FF70
:10178000002138000CF010FC1B49280009F0FEFE77
:10179000002101980CF008FC2800124909F0F6FE1F
:1017A0000136DDE7154B9C4200D13400E07C002877
:1017B00000D15FE70330800024186468CEE7C0469C
:1017C0007447041000B20310EA16000048C8031062
:1017D000B4C703109CD0061058BD031058960310D0
:1017E000C03F0410BB7204107C9603108496031053
:1017F000CCC80310BF3F041094960310F0D8031018
:10180000022210B581680348C900114308F0C2F8EC
:1018100010BDC0465C4D002010B518F04EFD0849C3
:101820000822040037F058FD01002000002904D1EF
:101830000A00083007F06CFB10BD20F027FBFBE727
:10184000A896031010B50400FFF7E6FF02280BD09E
:1018500063686D22991E200018F09AFD2000FFF7A2
:10186000DBFF0023022800D10223180010BD000076
:1018700010B50400FFF7D0FF012806D0200003496F
:1018800018F07AFD2000FFF7DDFF10BD2C0A0610CE
:10189000F0B5D026360633682F4D9B0089B05B59D2
:1018A00000AF040039611869BA21FA600EF0F2F94C
:1018B000336878619B005B5900221869274904301E
:1018C00008F068F81C230600F918786912F08AFD00
:1018D000721E96410100FB69A41BC318002C05D1A0
:1018E0008B420CD11E491F4816F00CFD8B42F7D9D4
:1018F000013B1A782E3A50424241A41AEEE76A465A
:101900005E1AFB681B68F4187B61631CBB600733BD
:10191000DB08DB00D31A9D466D463200280035F007
:10192000C7FD7B69002B0AD02E23AB553B69701C89
:101930001B687A691900281835F0BAFDBC682100C7
:10194000280015F05FFF16F044F8BD463B691860AB
:10195000FB681C6009B0F0BDDC4800204A0E0000A6
:10196000B196031044BF031030B5D3000D0002221E
:10197000E32185B01A434900040016F02DFFD0235F
:101980001B061B680C499B005B5862681969684616
:101990000291D9681A610391DA6008490CF054FA8F
:1019A00000222100280003F071FF16F0B7FD01208E
:1019B0000CF058FA05B030BDDC480020BD7F0110A6
:1019C000F0B5050085B008000F0018F076FC08227D
:1019D0002349040037F080FC002819D1260008367E
:1019E0006A46300001A907F093FA019B022B0FD140
:1019F000009C2B002200083303CA03C3300015F0FB
:101A0000CDFF02002800A168FFF7AEFF05B0F0BDD2
:101A1000200015F0C3FF060078682418033C2378E3
:101A20006D2B08D1300002A9029515F059FE320045
:101A300003990298E8E7300007F017FF0222E3213C
:101A4000040003684900DB0028001A4316F0C4FEB6
:101A50006A6801211300200016F068FDD6E7C04631
:101A6000A8960310F0B50300B3B00868032B0AD999
:101A7000CA680392042B27D00B695C10002B05DA8F
:101A8000002017F057FA06230024039305A912F04B
:101A9000A9FC0690002C04D0200005AA06A9FFF797
:101AA000F7FE059B002BEBD00026012335000093A9
:101AB0000296059B009A934208D2039B062B00D105
:101AC000029D280033B0F0BD0024DFE7009A06989D
:101AD000934202D0835C2E2B26D1009915F092FE02
:101AE000009B0190991B069B981915F08BFE5D4B8E
:101AF0000700A833186808AA07A90CF08DFB079BFC
:101B0000002B15D0019B0022D9000223564819430F
:101B100007F040FF00280BD04468029B002B00D147
:101B200002942500009B5E1C009B01330093C0E7DC
:101B3000802112AA0EA818F066FB002D38D12900CA
:101B4000380010F08DFB041EE7D1464B0AAAA833DB
:101B5000186809A90CF060FB2C00099B9C4206D375
:101B60000121380010F07CFB041ED6D13FE0002399
:101B70000A9A0F93A30098580BA912F033FC0B9A02
:101B80000100002A06D00EA818F0FEFA2F210EA898
:101B900018F0A9FB380015F01CFF01000EA818F082
:101BA000EBFB0EA8FFF764FE061E25D10134D4E737
:101BB000CA2128000BAAFF3116F022FB0B9800283F
:101BC00015D012F0A5FB01000EA818F0D5FB2F21AF
:101BD0000EA818F088FB380015F0FBFE01000EA8D7
:101BE00018F0CAFB0EA8FFF743FE061E04D1019AA7
:101BF0001E491F4816F090FB019810F00FFB019B47
:101C000004001C490BA80D930CF01EF9012E23D1E2
:101C10000F99109811F0EAFFCA210200FF3120004D
:101C200016F0DAFD0EA814490F9E18F0A5FB0EA8B9
:101C3000FFF708FE022803D120000EA9FFF7C0FE1F
:101C40000F96002D04D022003900280016F0C4FDA4
:101C500000200CF007F960E720000EA9FFF7B0FEA6
:101C6000EFE7C046084D00205C4D0020CF960310E2
:101C700044BF03100118001035070610036A1B8BC0
:101C8000012B02D0C3685918C160704710B5040019
:101C9000836A406A9B6F9847238B226A01339BB209
:101CA0002383918C994200D2938410BD10B5040017
:101CB000038B013B0383836A406A0433DB6F9847DD
:101CC00001212000FFF7DAFF10BDF7B507000C0077
:101CD0001E0000290DD003230D001D40194211D113
:101CE0004B68D9B291420DD11B0A0193019B9D42D1
:101CF00000DBF7BD2300AA00083338009958B0472D
:101D00000135F3E721003800B047F2E7F0B589B0BC
:101D100004000D0005920693002B03D00823CA8A05
:101D20001343CB823022059BEB83236AD98A0A4373
:101D3000DA821B78002B44D1A36A2900B0331E68D5
:101D4000059A069B606AB04709B0F0BDD26AFB00F5
:101D5000D118D35C0791053B012B1FD8002318E055
:101D6000049BEA6ADB00D018D35C062B0FD1079BDB
:101D70005968436899420AD1079B606A5A88A36AE6
:101D80001B691E000023B047039B01330393049B90
:101D900001330493049A2B8D9342E1DC0137226ACC
:101DA000138DBB42D2DC039B002BC5D0069AA36ADD
:101DB0000092B4331F682900059B039A606AB847F4
:101DC000C2E700270397EAE7F8B50F0011001A00F1
:101DD0000023040085780669837003610F4BFFF7C9
:101DE00074FF6368002B18D1618A00290BD0228A06
:101DF000002A08D1A36A606A9C331B689847A36ACB
:101E0000606A1B6C9847238A39002000628AFFF7BA
:101E10007DFF6B1E9D412661A570F8BD412A001013
:101E200010B59D22024B8968FFF74FFF10BDC046D9
:101E30003547001010B56B22024B8968FFF745FF4C
:101E400010BDC0463944001010B50400836A00215B
:101E50000833DB6F406A9847A36A606A10211B6BE6
:101E60009847A36A606AC8331B6801219847032119
:101E70002000FFF703FF10BD70B50400836A002245
:101E80005B6C406A9847A36A606ABC331D68002394
:101E90001A001900A8472000FFF7D6FF70BD10B543
:101EA000836A896800221B6D406A0909984710BD42
:101EB00010B5836A8968DB6B406A984710BD10B51E
:101EC0000400080011001A0017F0ACFB236A4360FD
:101ED00000238360E369002B01D1E06110BD1A008B
:101EE0009B68002BFBD19060F8E770B54378040045
:101EF0000D00012B06D1036A0A001B8B0221FFF79C
:101F0000DEFF2861AA6829694C232000FFF75CFFE7
:101F100070BD70B51300427805000C00012A04D191
:101F20000A000721FFF7CBFFA061A6692800310056
:101F30004623E268FFF748FFB08A70BDF0B589B06C
:101F400005000C0000AF002902D10121116018E04A
:101F5000032319401C421CD163687961DBB2682BF2
:101F600007D1E3681B091360A4680123002CECD09F
:101F70007B610F232340022B0DD17B692109002BAC
:101F8000E4D0AB6A0022DB6A686A9847BD4609B0B4
:101F9000F0BD0023ECE77B69002B02D1A3681B098D
:101FA0001360260063681B0A5A1E9B001B193A61C6
:101FB000FB60B3680436180915F002FD3B691B1875
:101FC0003B61FB68B342F4D16A463B6926000733A4
:101FD000DB08DB00D31A9D463B60BB60B368043668
:101FE00018091C23F91815F0FEFCFB6901001A0002
:101FF000B8687B6035F05CFA7A68BB689446FA682A
:102000006344B24218D13969386815F0FBFBAB6AFA
:102010000100DB6A0022686A98477B69002BB5D013
:10202000FB680434A342B1D0A36800221909AB6A4B
:10203000686A1B6D9847F3E75A1CBA602E221A7023
:10204000CCE7002906D0032382680B40134301D15B
:102050000B68836070470000436870B50D00040092
:102060001100002B07D104480EF0E4F8290060604D
:102070002000FFF7E6FF70BD3CC10310F0B50D0076
:102080000162002142702B7891B0049204008D4AC5
:10209000C160072B2DD1049B012B05D0036B021DC2
:1020A0001B680499C06A98476378EF68032B10D1C6
:1020B000380046210FAA0C3037F09EF8236B010040
:1020C0009B680F9AE06A984763686883002B00D08A
:1020D000BAE03969002944D00F250D40022D3CD1CA
:1020E0000B09752B3FD009D83E2B3ED05E2B09D073
:1020F000754A2000FFF7B0FF11B0F0BD734A032509
:102100009342F5D17B6919210DAA0CA80C9337F0E5
:1021100073F800230A900893089B0A9A934226D1E9
:102120006378012B15D9236B29005B68E06A984717
:102130006378042B0DD1206A0395438BE26A0293E6
:1021400000230193009393680521D268006903F08E
:102150008AFB6368002B77D1CEE720005C4AFFF74B
:102160007BFF0225CEE70025CCE70125CAE7089BC7
:102170009B000693069A0D9B9958FF224B681340CB
:10218000082B02D1089B0133C5E7052B01D0514A2A
:10219000AFE7CB68002BFAD1FF208B685A6802406A
:1021A0002C2AF4D19E681D3A3240022AEFD1DB6816
:1021B0000793002BEBD09B07E9D1079B5B68059346
:1021C0000340302BE3D10798A4210EAA083037F042
:1021D00013F8414B360905909E421CD1012805D1C8
:1021E0000F210E9A13680B40022B04D03B4A0D9B23
:1021F000069959587DE7E1684B1CE360049B012B6D
:102200001ED01268236BE06ADB6812099847002829
:1022100016D1334AEBE7F1235B009E4217D1059BB1
:10222000012B04D10E9B1968059B194201D12D4A3F
:10223000DDE7049B012B03D0E06A4910FEF775F936
:102240006368002B9ED0079F3B68A36054E7264B32
:102250009E4229D1059B012B06D90E9B01221B68AA
:102260001E001640134201D1204AC0E7049A012AF9
:10227000E6D05B100B930E9AB30098580FA936F076
:102280006BFF002801D11A4AB1E7E36A0F9809935E
:102290000FF012FA0B9902000998FEF74DF9059B11
:1022A0000136B342E7D1CBE7049B012BC8D0236BA7
:1022B00031001B69059A9C46E06A66460E9BB04752
:1022C000BEE7C046F0960310149703109A0300006F
:1022D0002197031049970310AE0200006C9703107A
:1022E00088970310989703102B020000B4970310EF
:1022F000D997031010B5024AFFF7AEFE10BDC046D5
:10230000FB9703104B6870B5DBB20400092B10D1AA
:10231000858A094B9D4203D12000084AFFF79CFEA5
:10232000638B228B2900D21AA36A606A5B6F98477D
:1023300070BDC58AEDE7C046FFFF00001898031086
:1023400070B5140005000E001278002B13D0002A7F
:1023500007D0032A05D0104A31002800FFF77CFE81
:1023600008E0032626706168286A17F0B9F900288A
:1023700000D0067070BD002A0AD10123237021000D
:10238000006A17F0B6F92378044A012BF2D1E3E78B
:10239000062AEFD0024ADFE7389803105798031057
:1023A0007598031070B500260500B14210D00F23B8
:1023B0000B40022B0ED10C0920000BF0FDFC061E79
:1023C00006DA2200054906480DF0BEFF00266860C7
:1023D000300070BD034AFFF73FFEF9E796980310FF
:1023E000F0C103102897031010B5040062780B00A9
:1023F000006A012A02D117F052F910BDA16A020049
:102400001031606A03F0FDF9F7E7000070B50500D0
:102410000C1E1AD0CB0705D5836A49105B6B686A1E
:10242000984712E08B0714D00F2309091C40022C97
:1024300009D0062C0AD0062907D0836AC9B21B6BC3
:10244000406A984701E0FFF7CFFF70BD836A9B6B3E
:10245000E5E7836A0968DB68406A98476368034A6E
:10246000DBB29B00210028009B58D9E7049B031096
:10247000F0B505000C001700032685B0019320007D
:1024800036F03AFE002807D0002F0CD1AB6A019934
:102490009B6E686A984706E0200036F0DDFD002854
:1024A00003D0002FF2D105B0F0BD002C43D0344250
:1024B00041D163681A0A0292FF2213401E2B1AD1DF
:1024C000002F1CD0029B9E003619B442EBD0A168AD
:1024D0003A002800019BFFF7CBFF0434F5E7210009
:1024E0000122B00008310958039B28007A40FFF709
:1024F000BFFF013608E01F2B17D1002FE2D00026C6
:10250000EB6803930133EB60029B013BB342E6DCD3
:10251000029E019B0136B60031593A002800FFF7B0
:10252000A7FFAB6A03999B6AB3E7202B03D11F3B3C
:10253000A4685F40A3E721002800FFF767FFAB6AAC
:102540003900DB6E019A686A9847ACE7036A70B598
:102550001B780400072B05D0022B03D0144AFFF789
:102560007BFD70BD8D68002D0FD1A36A10211B6B00
:10257000606A9847A36A606AC83300211B6898475D
:1025800001212000FFF77AFBEBE7AB070BD16B686B
:10259000DBB2AF2B07D12000A968FFF737FF20007F
:1025A000FFF752FCDDE729002000FFF72FFFE1E7EE
:1025B000A898031070B5437804001500CE68012B6D
:1025C00006D1036A0A001B8B2900FFF778FC7061B3
:1025D0000023200071691A00FFF798FB2000F168C2
:1025E000FFF714FF062D05D1A36A00210833DB6F26
:1025F000606A9847A36A0121B8331D680023606AA6
:102600001A00A84770BD70B50D000400C968FFF737
:10261000FDFEA9682000FFF7F9FE70BD4B6870B59C
:10262000DBB204000D00342B11D18968FFF7EEFEF8
:10263000ED68AD68002D10D1A36A10211B6B606A94
:102640009847A36A04229C3302211B6819E0836A1D
:1026500010211B6B406A9847EBE70326354225D1D2
:102660006B68DBB29A2B0FD1A36A10211B6B606AD7
:102670009847A968002910D10422A36A02319C332B
:102680001B68606A984770BD9B2B0FD1A96820001A
:10269000FFF7BCFEEB689968ECE72000FFF7B6FE99
:1026A000A36A04229C3331001B68EAE7290020005A
:1026B000FFF7ACFEC5E710B504008968FFF7A6FE7A
:1026C000A36A0021DB6C606A984710BDF0B58D6885
:1026D00087B004000292002D09D1002A26D00222E0
:1026E0002900836A9C331B68606A98471EE00327B1
:1026F0002B003B4001933D4200D08FE0FF266B68EA
:102700003340372B14D1029B002B06D0836A022260
:102710009C3301211B68406A984720002900FFF77D
:1027200075FEA36A606AA0331B68984707B0F0BDC6
:102730009F2B73D1E86843683340A12B5ED1A2215F
:10274000083005AA36F058FDA9680390002926D064
:10275000394224D14B681E40372E20D1029B002BDA
:1027600006D0A36A411C9C3302221B68606A98470A
:102770002000A968FFF74AFEA36A606AA0331B68BD
:1027800098470127019B039A93420DD1002FCDD189
:102790001900A36A03229C331B680131A4E72000BF
:1027A000FFF734FE0027EDE70026019B059A9B000A
:1027B0009958B14208D00323194205D14E68FC3321
:1027C0001E40373E73425E412000FFF71FFE002F80
:1027D00010D0002E05D1164A29002000FFF73CFC3E
:1027E000A4E7A36A606AA0331B689847019B013382
:1027F0000193C7E7002EF9D00E4AEDE7AB68002B36
:1028000006D03B4204D15B6804221E40372E00D024
:10281000052229002000FFF7CDFE87E729002000D0
:10282000FFF7F4FDA36A03229C3301211B685BE7D9
:10283000C1980310DE98031010B50122FFF746FF80
:1028400010BD70B50D00C9680400FFF7DFFDAB686F
:1028500002211B09DBB2342B01D0403BD9B2A26A62
:10286000606A94321368984770BDF8B54B680C00E5
:10287000896805001F0A0026FFF7C8FD0C340236E0
:10288000B74200DCF8BD61682800FFF7BFFD236890
:10289000686A1909AB6A253998331B68C9B2984729
:1028A0000834ECE7F7B54B680D001F0089681B0A78
:1028B000040001930126FFF7A9FD0D3FFFB2019B24
:1028C0009E4200DBF7BD2B00B20008339958200070
:1028D000FFF79CFDA36A390098331B68606A98472C
:1028E0000136ECE7F7B54B680D001B0A89680093C9
:1028F0000400FFF78BFD009B0027032B02D9E7683C
:102900007B1CE36001260C350195009A731C9A42EA
:1029100021DC032A1EDDE568606A6B1CE360A36AA4
:1029200029009B6E9847A36A39009B6A606A9847A2
:10293000A36A01219B68606A9847A36A606A1B6E5C
:102940009847A36A606ADB6D9847A36A29009B6A6F
:10295000606A9847F7BD019B20005968FFF756FD54
:10296000009B02369E4207DAA36A606A5B6D984755
:10297000A36A606A5B6E98470F21019BA26A1B687D
:1029800098321268606A19400A2914D11B09DBB217
:102990000439262B01D0353BD9B29047009B9E428B
:1029A00005DAA36A3A0000211B6F606A9847019B11
:1029B00008330193A9E7FF2559682940852901D1EA
:1029C0005339EAE79B680721002BE6D03321E4E77F
:1029D00010B504008968FFF719FDA36A0321943339
:1029E0001B68606A984710BDF7B54A680E00D3B2FD
:1029F0001E3B59424B4104000025C768DBB20193DE
:102A00007B1CC360130A0093009B9D4205DBA36AF5
:102A100039009B6A606A9847F7BD3300AA00083303
:102A200099582000FFF7F2FC009B01359D42EEDA39
:102A3000A36A3A001B6F0199606A9847E4E70000B7
:102A40000F2370B50B400400022B11D04B68DBB292
:102A5000492B01D04F2B02D10123A37070BD4A2B0B
:102A6000FCD0502BFAD0482B0DD10D69002D0CD184
:102A7000A378002BF2D1638A002BEFD020001D4AEF
:102A8000FFF7EAFAEAE7CD68F0E7A378002B28D051
:102A9000238A8E6801339BB22382012B0FD1618A76
:102AA000A36A606A002919D09C3300221B689847EA
:102AB000A36A02229C3300211B68606A98472900A0
:102AC0002000FFF7A3FCA36A606A9B6B310998475B
:102AD000A36A606AA0331B689847BFE71B6C9847DE
:102AE000E6E7638A2900013320006382FFF78EFC4A
:102AF000B4E7C046FD980310F7B504000E00C568A2
:102B0000CF686B1C0193AB1C0022B968C3602B001B
:102B1000FFF7AEFCB1682000FFF778FCA36A691CE0
:102B2000606A9B6E9847A36A2900606A9B6A98470F
:102B30000121A36A606A9B6849429847F9682000AE
:102B4000FFF764FCA36A01999B6A606A9847F7BD26
:102B5000F0B5436985B00393C668438B771C029335
:102B6000B31CC360038B04008682C78243838868DA
:102B70000D0036F0C1FA002821D1E368A86801935E
:102B80000133E36036F068FA002804D1A36A390003
:102B90009B6E606A9847A36A01999B6A606A98472E
:102BA0002000E968FFF732FCA36A39009B6A606A7B
:102BB000984701222000019BA968FFF759FC039B5D
:102BC00020006361029B29696383FFF71FFCA36AEE
:102BD00031009B6A606A984705B0F0BDF0B5C668E1
:102BE0000400731CC36087B088680D0036F084FA57
:102BF000021E20D1E76820007B1CA968E3603B002F
:102C0000FFF736FC2000E968FFF700FCA86836F003
:102C100023FA002820D12B69002B02D16B69002BED
:102C200004D0A36A31009B6E606A9847A36A39009A
:102C30009B6A606A98472800712105AA103036F017
:102C4000DBFA002303900193019B039A93420AD17C
:102C500020006969FFF7DAFBA36A31009B6A606AAA
:102C6000984707B0F0BD019B059A9B009F58B86834
:102C700036F042FA021E1BD1E368200002930133B2
:102C8000B968E360029BFFF7F3FB2000F968FFF7E8
:102C9000BDFBB86836F0E0F90028DDD1A36A310049
:102CA0009B6E606A9847A36A02999B6A606A98471C
:102CB000019B0133C7E770B58D680400002D06D174
:102CC0002900836AC4331B68606A984770BDAB07EC
:102CD0000FD16B68DBB25E2B0BD1A968FFF796FBB7
:102CE000E9682000FFF792FBA36A0221C4331B6846
:102CF000EAE729002000FFF789FBA36A0121C4331A
:102D00001B68E1E710B504008968FFF77FFBA36A41
:102D1000606ADB6D984710BDF8B505000C004B6884
:102D20001E0AB700CF19BC4207D1AB6A31009C33F1
:102D3000686A00221B689847F8BDA1682800FFF761
:102D400065FB0434EFE7896810B5002906D1836A72
:102D50000A009C331B68406A984710BD4B681B0AE9
:102D6000022B0CD1CB68002B09D09A0707D15B68E6
:102D7000DBB2AC2B03D10622FFF71CFCEDE7FFF71B
:102D8000CBFFEAE7F8B505000E0000244B681F0AE8
:102D9000BC420FDA3300A200083399582800FFF72D
:102DA00035FB6B68002B06D00234A4002800A15923
:102DB000FFF747F9F8BD0134EAE710B50400FFF763
:102DC000E1FFA36A222198331B68606A984710BD0F
:102DD00070B58D680400002D07D101222900836A97
:102DE0009C331B68606A984718E00322154221D182
:102DF0006B68FF201900014092291BD11B0A022B8E
:102E00000DD1E96800290AD0114208D14B6803406E
:102E1000AC2B04D129002000FFF7CCFB70BD2900AA
:102E20002000FFF7AFFFA36A69689C3301221B688B
:102E3000090AD7E729002000FFF7E8FA0122A36A70
:102E400011009C331B68CDE7F8B58023174A9B001F
:102E5000D75804000D00002F26D1C6680122731C2C
:102E6000C36089683300FFF703FBA36A1F210122B7
:102E70005B69606A9847E96800290AD02000FFF77B
:102E8000C5FAA36A3A00B8331D6801213B00606AA5
:102E9000A847A36A0121C4331B68606A9847A36AE4
:102EA00031009B6A606A9847F8BDC046084D002013
:102EB000F8B5036A04001B78072B03D01B4AFFF701
:102EC000CBF8F8BD8D68002D0AD1836A10211B6BE9
:102ED000406A9847A36A606AC0331B689847F0E766
:102EE00003232A001A401D421ED16B68DBB21B2B44
:102EF0001AD1C668EF68731CC360B9683300FFF766
:102F0000B7FAA9682000FFF781FAA36A606AC033A4
:102F10001B689847A36A31009B6A606A9847F96802
:102F20002000FFF773FAD5E72900F9E72B99031082
:102F300010B50B004178026A012904D11900100074
:102F400002F04FFC10BD816A406A183102F059FC52
:102F5000F8E70000F7B5032704000D00160039421A
:102F60000CD00F230B40022B13D10909D30702D435
:102F7000FFF7DEFFF7BDFFF737FAFBE74968FF20F1
:102F80000B0003402D2B7CD009D8062B0CD02C2B0A
:102F900013D0290020004E4AFFF75EF8EAE72E2BF7
:102FA00000D183E09D2BF4D1002EF2D12A00090A32
:102FB0000832200000F0F8F8DCE7022A03D02000F5
:102FC000A968FFF723FAEB680093002BE1D00323F5
:102FD000009A00991A401942DBD14B680F00D9B210
:102FE0008E2909D11B0A17000193022E1AD1019BC9
:102FF000009A01339B009F587B68DBB2312B26D1AE
:10300000022E14D1A36A606A5B6E9847A36A0121FD
:10301000DB6C19E0009BBA00083320009958FFF7D9
:10302000F5F90137019B013B9F42F3DBDFE720000D
:10303000B968FFF7EBF9A36A012EE8D19B6D606ACE
:1030400098470021A36ADB6C606A984792E7322BAD
:103050009FD1A36A606A012E09D15B6D9847002257
:10306000A36AB9681B6D0909606A984782E7022E56
:1030700001D11B6E9847B968A36A01221B6D09092B
:10308000F2E7AA68002A84D0002E82D15368190A78
:10309000022909D1D368002B06D0980704D15B68B8
:1030A000DBB2AC2B00D174E7083282E7002A00D0F3
:1030B0006FE7A9680A1E00D17BE7394203D14B684C
:1030C00018409228E2D02A000121083271E7C04658
:1030D00045990310F7B504000D00C6680193B31CB1
:1030E000C360836A31009B6A406A00929847A36A72
:1030F000771C883339001B68606A9847A9680022EA
:103100002000FFF727FF2D69002D2DD12000009909
:10311000FFF77CF9236AA06A197806291CD1C83008
:1031200003682900606A984720000121FEF7A6FD88
:10313000A36A606ADB6D9847A36A3100606A9B6E80
:103140009847A36A3900606A9B6A9847A36A606AD5
:103150008C331B689847F7BD019BA4309A00056823
:103160000532606AA847E7E7FF226B681340AD2B82
:1031700007D1A968330000222000FFF779F9ED6834
:10318000C2E72000E968FFF741F9A36A606A0833E3
:103190000121DB6F9847019B29002000009A013331
:1031A000FFF798FFC8E70000F0B5012705000C0005
:1031B00085B00291039201927F42029B1E1B002C5C
:1031C00015D17B1C05D1AB6A3100A8331B68686A36
:1031D0009847B4422AD0039AA300D1580022A742AC
:1031E00000D189682800FFF7B5FE0134F1E7019BA3
:1031F0001968002911D0032319420ED1FF224B6810
:103200001340222B09D17B1C0CD1AB6A3100AC33AB
:103210001B68686A621E98473700019B013C0433B3
:103220000193CAE72800024AFEF716FF05B0F0BD79
:1032300060990310F0B585B004001F00019102925F
:10324000002904D13900FFF7E1F805B0F0BDC668E8
:10325000731CC360029B1D68002D2BD003232A0022
:103260001A4003921D4225D16B68DBB27B2B21D122
:10327000A968FFF7CBF831002000039AFEF706FD9E
:103280002000039AE968FFF765FE029A019904326B
:103290003B0020000139FFF7CDFFA36A3100DB6F4F
:1032A000606A984720000321FEF7E8FC2000FEF743
:1032B000FDFCCAE729002000FFF7A8F82000002243
:1032C0003100FEF7E3FCA36A606ADB6D9847DCE738
:1032D00037B5050008000C0001AA7A21083035F046
:1032E0008BFFE3680100019A2800FFF7A3FF37BDB9
:1032F000F0B50D000F21AB6804008BB00B40022B22
:1033000000D001E1EB68002B00D1FDE00322134265
:1033100000D0F9E0FF205A6802402C2A00D0F3E0E8
:103320009A681140022900D0EEE012097C2A00D0F0
:10333000EAE0DA6853681840302800D0E4E0936887
:10334000A23109AA08A8089335F056FF431E022BA4
:1033500000D9D9E0099B1E68012800D1C7E05F6849
:10336000022800D114E19B680193DB0700D4CBE075
:10337000019B5B1000D1C7E0002E07D0B30705D139
:103380007368DBB2A63B022B00D8BDE0002F07D04C
:10339000BB0705D17B68DBB2A63B022B00D8B3E0AC
:1033A000AB683A0004932B6905936B69E568039356
:1033B0006369A5820793638B06936B1CE382238B5F
:1033C00063832B1DE36001231A4002921F4203D145
:1033D00039002000FFF71AF831002000FFF716F837
:1033E000A36A606A9B6EE91C9847A36AA91C9B6A42
:1033F000606A9847A36A606A5B6D98470022200064
:103400000499FFF7A7FD20000599FEF7FFFFA36AC7
:10341000606A9B6A691C984720000199FEF7F6FFD5
:10342000A36A0E2198331B68606A9847A36A606A92
:103430009B6AE91C9847029AA36A002A5CD19B6D9B
:10344000606A9847A36A606A1B6E9847A36A019AEC
:10345000983300211B68606A002A00DA01210026E7
:103460009847A36A0121DB6E606AAA1C9847079BF4
:103470006361069B6383039BB3421ED0A36A606AA9
:10348000DB6D9847029BB34203D1A36A606ADB6D90
:10349000984720000399FEF7B9FFE668606A731C3D
:1034A000E360A36A31009B6E98470121029B606A2A
:1034B0005940A36A01319B689847A36A29009B6A17
:1034C000606A9847A36A606ADB6D9847029B002B8D
:1034D00003D1A36A606ADB6D9847039B002B04D07D
:1034E000A36A31009B6A606A98470BB0F0BD032362
:1034F00037000193060049E7606A5B6D9847390021
:103500002000FEF783FFA1E76369E6680293638BFF
:10351000771C0193238B200063831F4BE96833439F
:10352000A382F31CE360E782FEF770FFA36A606A80
:1035300008330121DB6F9847A36A3900606A9B6AF0
:103540009847A36A606A88331B68B11C98470022B9
:103550002000A968FFF7FEFC20002969FEF756FF4E
:10356000A36A3900606A9B6E9847A36AB11C606ABF
:103570009B6A9847A36A606A8C331B689847029BD2
:1035800020006361019B69696383FEF73FFFA7E742
:1035900003230193F0E6C0460080FFFFF0B587B03B
:1035A0000400019102920393002904D10399FEF7CC
:1035B0002DFF07B0F0BDC668731C0493B31C0093C5
:1035C000331DC360029BF71C1D68002D00D1F3E082
:1035D00003232A001A4005921D4200D0ECE06B68DC
:1035E000DBB27B2B00D0E7E0A968FEF70FFFA36AF0
:1035F000606A5B6D9847BE212000FF31FEF73CFCFE
:103600002000059AE968FFF7A5FC0222310020009E
:10361000FEF73CFBA36A606A03219B689847029A05
:10362000019904322000039B0139FFF7B7FF032102
:10363000A36A606A9B6849429847A36A1021606A3E
:103640001B6B9847A36A606A1B6E9847A36A606AFF
:10365000711C9B6E9847A36A3100606A9B6A984709
:10366000A36A606A5B6D9847A36A0122606A2121A0
:103670005B699847A36A606A983308211B6898477A
:10368000A36A009A0021606ADB6E9847A36A606AA9
:103690005B6D9847A36A606A5B6E9847A36A606A2D
:1036A0001B6E9847DF21A36A00224900606A5B6CA9
:1036B0009847A36A606A5B6E9847A36A606A5B6E0C
:1036C0009847A36A606A5B6D9847A36A00220A2143
:1036D000606A1B6D9847A36A606A1B6E9847A36A6D
:1036E000606A10211B6B9847A36A0321BC331D68D5
:1036F0000023606A1A00A8472000FEF7A5FBA36A12
:103700003A000021606ADB6E9847A36A606ADB6D4D
:103710009847A36A606A10211B6B9847A36A390017
:10372000606A9B6E9847A36A606A02219B6898470B
:10373000A36A0099606A9B6A9847A36A606A5B6E95
:103740009847A36A606A5B6E9847A36A0499606AA7
:103750009B6A9847DF21A36A0022606A5B6C49007C
:103760009847A36A1021606A1B6B9847A36A606A36
:103770005B6D9847A36A606A5B6D9847A36A0321F3
:10378000BC331D680023606A1A00A8472000FEF7BA
:103790005BFBA36A606ADB6D98470121A36A606ADC
:1037A0009B6849429847A36A606A39009B6A9847B8
:1037B0002000FEF77BFAFCE629002000FEF726FE3B
:1037C000A36A606A5B6D9847BE212000FF31FEF757
:1037D00053FBA36A606ADB6D984716E7F7B5CD68BF
:1037E00004000E00002D28D10378002B18D0036AA6
:1037F0001D78002D14D1E5214900FEF7F5FDB168D3
:103800002000FEF703FEA36A2A00B8331E680121D8
:103810002B00606AB047A36A606ADB6D9847D0E00E
:10382000B1688B0700D1C4E00F230B40022B00D0FE
:10383000C7E02000FEF7EAFDEDE7AB0700D0C1E0EE
:103840006B68DAB25B2A13D1ED68002D00D0B9E0C5
:10385000006A0378072B00D0B3E0896808330B4077
:10386000022B00D0ADE00909573A15F018FFA8E087
:10387000562A13D1553A8968FFF76CFB2000E96896
:10388000FEF7C4FDA968A36A09093F3998331B688C
:10389000606AC9B298470222B16886E0572A00D010
:1038A00090E01B0A5F1E01339B005959FEF7AEFDE5
:1038B000002F03DDA36A606A5B6D9847B168002240
:1038C0002000FFF747FB0026BE427ADA0136BE42EF
:1038D00003DAA36A606A5B6D9847291DB300002272
:1038E0002000C958FFF736FBEEE76B68FF21180090
:1038F00001930840062869D1B768002F66D01742A7
:1039000064D1786803000B40062B5FD1030A009353
:103910000098019B1B0A834258D10300023B012BF4
:1039200054D8BB68002B05D0134203D15B680B4011
:10393000222B4BD0FB68002B05D09A0703D15B6884
:10394000DBB2222B42D0009B022B08D03B69002B1C
:1039500005D09A0703D15B68DBB2222B36D020005A
:10396000A968FEF753FD2000E968FEF74FFD009BB4
:10397000032B07D120002969FEF748FDA36A606A7E
:103980005B6E9847A36A606A1B6E9847002220000E
:10399000B968FFF7DFFA00222000F968FFF7DAFACA
:1039A000009B032B0DD1002239692000FFF7D2FACA
:1039B00007E0002900D13CE74B68DBB23A2B00D08E
:1039C00037E7F7BD0322154200D18EE7290020001A
:1039D000FEF71CFD00225FE70023F7B5C36003007C
:1039E00034334270016204000D0017001A70032A7C
:1039F00003D1C08E002828D1A0630026A36A390015
:103A00002A001B68606AE686984706212000FEF7B8
:103A100035F96778012F01D16E84AE84EE68002EEF
:103A200017D0B30715D17368DBB23F2B11D120003B
:103A3000B168FEF7EBFCA36A606AC0331B68984765
:103A4000A36A606A5B689847FEBD800005F04FFF7F
:103A5000D2E72B783100002B17D0072B1ED1012F76
:103A600012D10023A37046225B4B2000F168FEF7C1
:103A70002CF92B8B032B07D120003169FEF792FC28
:103A80008301E88A1843E88271692000FEF7BEFCD2
:103A9000A36A10211B6B606A9847CCE7022B1BD1ED
:103AA000A36A3168DB68606A98476378012B07D1A5
:103AB0000023A3704C222000484BB168FEF705F9A3
:103AC0002000F168FEF7A2FCEB8ADB07B3D5A36AFE
:103AD000606ADB6D9847DBE7033B032B4FD8F36845
:103AE0000193012F05D104223900206A15F0D7FD7A
:103AF0006F83A36A3168DB68606A98472B78032B71
:103B000024D10122A36A9C331B680021606A984774
:103B10002B78062B28D1A36A606A1B6C9847012179
:103B20002000FEF761FCA36A606A1B6C9847A36AD9
:103B3000606A1B6C984700232000B2680199FFF768
:103B4000C9FA2B78062B00D075E7A1E7042B04D126
:103B5000A36A02229C331B68D7E7052BD8D1A36A3E
:103B600003229C331B68D0E720000121FEF73CFCB8
:103B7000A36A01210833DB6F606A9847DBE7012FF6
:103B800004D104220A21280015F089FD1721200004
:103B9000FEF72AFC16212000FFF7CAF9B368606A15
:103BA0001909A36A9B6B98471A212000FFF7C0F9F7
:103BB00020003169FEF72AFC0A21280015F05FFD7C
:103BC0000278A36A042A00D163E742881D690A21AA
:103BD0000023606AA8472EE7894900109549001024
:103BE00010B5036A04001A8BFEF793F90100200058
:103BF000FFF79EF910BD0000F0B58D6804006B68FA
:103C000087B0DBB2032B09D12900FFF7E9FF0123BD
:103C1000AA69D18A0B43D38207B0F0BD0121026AA1
:103C2000D28A0A4204D129005D4AFEF715FAF3E769
:103C3000162B00D0A7E0C668E968331DC360FEF705
:103C4000E5FBC021A36A606A00225B6CFF319847E4
:103C5000A36A606ABC331B681F0000231A001900A6
:103C6000B8476369606A0393638B0293E3681F003C
:103C7000013301933B000233E360019B0199E3822E
:103C8000238BA7826383A36A9B6A98470122200043
:103C9000B118FDF7FBFFA36A606A5B6D9847E021EE
:103CA00020004900FEF7E8F82000A9680022FFF78D
:103CB00051F9A36A00229033606AB11C1B689847CF
:103CC000A36A711C606A9B6A9847A36A606ACC33D6
:103CD0001B689847A36A606A5B6D9847A421A36A32
:103CE0000122606A5B69FF319847A36A606A983372
:103CF00008211B689847A36AF21C0021606ADB6EEA
:103D00009847A36A606ADB6D9847A36A01229033E3
:103D10003100606A1B689847A36A606AF11C9B6A5D
:103D20009847A36A01219B68606A98472000FDF7C5
:103D3000BDFFA36A606AD0331B689847A36A606AB4
:103D40009B6AB11C984720002969FEF75FFBA36AB4
:103D50000199606A9B6E9847039B31006361029BE7
:103D6000606A6383A36A9B6A984720006969FEF7CB
:103D70004DFBA36A606A39009B6A9847A36A606A30
:103D8000DB6D984748E7280005AA7A21083035F00E
:103D900033FAEB680100059A2000FFF7FFFB3BE7D1
:103DA0007A9903100F2370B50B4004000D00160024
:103DB000022B02D01D4AFEF74FF931002000FEF71A
:103DC00025FBA36A606A5B6D984763782E09012B17
:103DD0000FD1226A1378033B032B0AD850683100B5
:103DE00001F0FFFC0278032A08D13100206A15F0A7
:103DF00056FC31002000FFF79BF870BD0022310017
:103E0000206A15F04CFC236A02005B6859684B423B
:103E10004B41DBB2002904D01178012901D10021E6
:103E2000117029002000FEF78BFAE2E74599031094
:103E3000F0B589B0059104920400A42107AA05A851
:103E40001E0035F0D9F900231F000390019302935F
:103E50000093019B039A934213D1002F04D0A36ACD
:103E600002995B6B606A9847049AA36A606A002AA9
:103E700000D177E0BC331C6831003B00009AA047BA
:103E800015E0019B079A9B009D58002D5ED00323EF
:103E90001D425BD1FF216B680B40A62B1AD1A43BBE
:103EA0001F4206D0304A29002000FEF7D5F809B09D
:103EB000F0BD019B1D2B01D92C4AF4E70123019A87
:103EC0001F439340029AA9681A4302922000FEF70A
:103ED0009DFA23E0A72B10D1A53B1F43A36A606A7C
:103EE0001B6C9847A9682000FEF790FA009B0133ED
:103EF0000093019B01330193ABE7A82B26D1EA681D
:103F0000002A0FD0A53B1A420CD153681940AA29A8
:103F100006D120009268A968FFF744FF0136E8E760
:103F2000AC290DD00F23A9680B40022B01D0104AF9
:103F3000B9E7A36A09099B6B606A9847E968D2E709
:103F4000062229002000FEF735FBE7E702231F4287
:103F500001D0084AA7E7009B002B01D0064AA2E740
:103F60002900B3E7B83386E7A0990310AF9903108F
:103F7000BD990310DE990310F699031070B50D007A
:103F8000417804001300012903D12A00FDF797FFAF
:103F90006861A36A606A9B6C984700236E691A0087
:103FA00031002000FDF7B2FEA36AB18A9B6B606A04
:103FB0009847E968002909D003230A001A401942EA
:103FC00004D14B68DBB2A32B00D1110020000223E7
:103FD0000022FFF72DFFB08A70BD002310B51A0034
:103FE0008968FFF725FF10BDF7B50C00896805004B
:103FF000FEF70CFAE668002E2FD07368DAB28E2A2C
:104000002CD0260001230C3600930F22296AA368C6
:10401000097800241A40072900D07AE0022A50D1FA
:104020001A099A2A00D076E031684A68D2B2302A5A
:1040300000D070E08A68A24200D06CE00A2128001B
:10404000FEF7D2F901212A6AD36A128D002A09D11A
:104050002800474A3168FDF7FFFFF7BD1B0A0093B0
:104060000836D2E75878084210D059682800FEF781
:10407000BBF9009AAB6A022A0BD8B8331C6800233C
:1040800002211A00686AA04701241AE0013A0833A5
:10409000DCE7FF227068416811403229EDD1B46835
:1040A00061680A40302AE8D181685B6C686A090956
:1040B0002F3A9847A168002301222800FFF7B8FE95
:1040C0000324009BA342C8D9631C00980193621C7F
:1040D000A300F158824245D2FF204A680240322AAA
:1040E00040D1F3185F687B680340302B3AD1896870
:1040F000AB6A00225B6C686A0909984700230122B9
:104100002800B968FFF794FE019C0134D9E7002428
:10411000D7E7022AD5D1C22200241B0952009342BC
:10412000CFD1FF2133685A680A40302AC9D19C6830
:10413000002CC6D0032322001A401C42E7D163683A
:1041400014000B402F2BBCD1AB6A1100B8331F6891
:10415000686A1300B8473368220028009968FEF7A0
:10416000B5FA91E72800FEF751F90194CCE7C04673
:10417000179A0310036A10B51B780400072B05D0AB
:10418000022B03D0054AFDF767FF10BD2000FFF7A3
:104190002BFF2000FDF758FEF7E7C0462F9A0310CB
:1041A00010B5CA688968FFF7FDFD10BD10B5036A38
:1041B00004001A8BFFF7E2FE01002000FEF7B8FEB4
:1041C00010BD0000F0B50400080089B0059108306A
:1041D000422106AA35F010F80027236A02901D8BB1
:1041E0000197029B9F420BD1059BD9684B68DBB2BC
:1041F000032B51D12A002000FDF78BFE050059E06A
:10420000069ABB009B586C21180007AA083003933C
:1042100034F0F2FF079B049019680A09732A0ED044
:104220002000FEF7F3F80126049B9E4229D3039B4E
:10423000D96800290DD02000FEF7E8F809E0049ABB
:10424000022A08D02000294AFDF706FF019B01330E
:1042500001930137C5E759680B09412B0BD0244A5C
:1042600093420AD0234A934209D0C13AFF3A93427B
:10427000E8D10425EAE70125E8E70225E6E703257A
:10428000E4E7079AB3009958A36A00221B6D606A9D
:10429000090998470136C7E7442B17D18E682A00D1
:1042A00031002000FDF735FE01230500B269D18AF7
:1042B0000B43D3820026029B019A9B1AB3420AD871
:1042C00029002000FEF734FE09B0F0BD2A002000CE
:1042D000FFF754FE92E7A36A0121B8331F68002359
:1042E000606A1A00B8470136E5E7C046489A0310ED
:1042F000E9020000AE0300000F23F0B58E68040051
:104300000D0085B033400A2B07D0002E30D0B30704
:104310002ED17368DBB2652B1CD102960026652175
:1043200003AA02A834F068FF0021039B80003F4AE3
:10433000C018984214D13E4BEA689A4236D1236A9B
:104340001F78002F16D0290020003A4AFDF784FE7E
:1043500005B0F0BD622B0BD1B3680293F668DEE7BF
:104360001F68974202D101310433E2E70331FBE7D2
:104370000021E0E7A36A606A5B6B9847A36A606A02
:1043800005219B6B9847A36A3A009C331B68606ABF
:10439000012198473100200003AAFDF7CFFDA36A51
:1043A00002223900DB6A606A9847D1E7A36A606A33
:1043B0005B6B984728006A210C3002AA34F01CFF7E
:1043C00000270500A36A606AAF4211D19C33002226
:1043D00029001B6898473100200003AAFDF7AEFDB5
:1043E0000026A26A606AAE420BD1D36D9847AFE750
:1043F0000299BA0052589B6B916801370909984796
:10440000E0E70299B3005F58BB681B09019301996B
:10441000D36A01229847F968002905D10199200043
:10442000FEF786FD0136DCE70909F8E7DA0500004A
:104430002A040000669A031037B504000D00836A51
:1044400000215B6B406A9847A36A606A1B6B10216E
:1044500098472900200001AAFDF770FD200001996E
:10446000FEF766FD37BD10B50B004178026A0129E1
:1044700004D11900100001F0B4F910BD816A406A3E
:10448000203101F0BEF9F8E7F0B504000F001E007E
:10449000C56887B06B1C0593AB1CC36029000492F0
:1044A0000122FDF7F3FB39002000FDF7AFFFA36AFF
:1044B000002290331B68606A691C9847A36A290030
:1044C0009B6A606A9847A36A606ACC331B68984706
:1044D000E368370001930133E36000230093009BFE
:1044E000049A934216DB2000FDF7E0FBA36A606AA2
:1044F000D0331B689847A36A05999B6A606A9847FE
:1045000020000C99FDF782FFA36A01999B6A606AFB
:1045100098475DE03B680393E36802930133E360EF
:10452000039B9E68009B01330093002E52D1049B95
:10453000009A934244D10025A36A606ADB6D9847D4
:104540002E00039B2000D968FDF760FF002D24D0CA
:10455000A36A10211B6B606A9847A36A31009B6AAB
:10456000606A9847A36A01219B68606A9847A36ABA
:1045700010211B6B606A984729002000FEF7D8FCC9
:1045800029002000FFF76FFF0121A36A606A9B6882
:10459000494298472000FDF789FBA36A0122903326
:1045A0001B680199606A9847A36A02999B6A606ACE
:1045B0009847A36A01219B68606A984704378EE791
:1045C00020001E4A3968FDF747FD2000FDF76EFB0D
:1045D00007B0F0BD0325032335401E422CD1FF2137
:1045E000736832000B40762B02D1D568B6682D096E
:1045F000A36A606A5B6D984731002000FDF706FFF3
:10460000A36A082198331B68606A9847A36A00214F
:10461000DB6E029A606A9847002D00D18BE7290073
:104620002000FEF785FCE6680222731C31002000A2
:10463000E360FDF72BFB84E70025D9E7839A03109D
:10464000F0B5C76885B003937B1C16000D000222ED
:104650003900C3600400FDF719FB002E2CD1A36ABA
:1046600003219B68606A984729002000FDF7CEFE71
:104670000321A36A606A9B6849429847A36A606AFB
:1046800010211B6B9847A36A3900606A9B6A9847A0
:10469000A36A606A9B680121984720000B99FDF787
:1046A000B5FE0121A36A606A9B68494298472000D1
:1046B000FDF7FCFA05B0F0BD0A9B3200009329001B
:1046C0002000039BFFF7E0FED8E77FB5CE6805002A
:1046D00073680C00DBB2782B09D10022B36800921A
:1046E000019313002800A168FFF7AAFF7FBD742B78
:1046F00017D1300003AA7721083034F07DFD3369EB
:104700000200002B07D1F36800932800039BA168E7
:10471000FFF7BAFEEAE79B680193F3680093039BF7
:10472000E0E7080003AA77210C3034F065FD002390
:104730000200E9E70F23F7B50B4005000C00022B40
:1047400003D10909FFF78FFEF7BD002965D00327C4
:10475000394262D1FF224B6813402C2B3BD1896830
:10476000FDF754FEE668002E57D0310039403E4236
:1047700053D1FF207268330010408E280AD10F00F9
:10478000130A0193019B013BBB4211DC019B0133E6
:104790009B009B595A68D2B2312A12D128009968DD
:1047A000FDF734FEAB6A0221DB6C686A9847CBE701
:1047B0003300BA00083328009958FDF727FE013767
:1047C000E0E7322A29D19968AB6A686A1B6D09094A
:1047D000303A9847B8E72D2B1FD18C68002C1CD09D
:1047E00063681A0A0123022A0AD1E268002A07D064
:1047F0003A4205D15368FF221340AC2B0DD0012360
:1048000062685E1C013B120A9A429DD9B300E158CE
:104810002800FFF78FFF3300F2E721002800024A4B
:10482000FDF71AFC90E7C046A19A0310F0B5437853
:1048300004000D0085B0012B0FD14B68DBB21E00C8
:10484000103E72425641F6B2102B08D0036A1B7814
:10485000002B04D10F4AFDF7FFFB05B0F0BD280087
:104860006D2103AA083034F0C7FC00270190019B9A
:10487000BB42F2D0039ABB009958206A0022090972
:1048800014F00DFF3300020029002000FDF758FD51
:104890000137ECE7B99A0310F7B50400006A0192FA
:1048A000C28A9C46170002230D001F401A4205D001
:1048B000334A29002000FDF7CFFBF7BD0F2631401A
:1048C000022917D1A2782909002A03D0838B01334A
:1048D000838303E01700438B0133438301260029C0
:1048E000EBD0002214F0DBFE03780090002B2FD0D9
:1048F000244ADEE76968019EC9B22F00B14208D19F
:10490000AB681909A378002BE0D1438B01334383B3
:10491000E4E7614516D1A378002BC9D10121A1702C
:10492000A9680029C9D004270F263A430E40C28245
:10493000022E03D1F9401F000326D0E78B680F0039
:104940001909F9E7A968134305260909C382C6E7CF
:104950000423009A13705670236A1B8B032BACD16F
:10496000019B482BA9D1002FA7D02000F968FDF7A3
:1049700019FD009A03015078184350709DE7C04616
:10498000DE9A0310ED9A031010B549234822FFF771
:1049900083FF10BD10B54F234E22FFF77DFF10BDE2
:1049A000F0B5A1B0059010201400069104F080FF2E
:1049B000D0231B061B68BE4A9B009B5800211B6925
:1049C0005822436007000AA832F06CFD0AAB1C7045
:1049D000012301215B4219A80F9304F0A1FF0221DA
:1049E000069B0122DB00194319A804F0D3FF012321
:1049F000002143601CA80DF0A5F98123AD4A9B005E
:104A0000D35C059A002112680AA8FDF758FA0190B4
:104A100017A800F069FEA84B119C14930023039083
:104A200013900293002C02D00B9D002D20D0119CDE
:104A3000002C02D00B9B002B39D000250299039843
:104A400000F059FE119C0B9B002C00D13AE1002B89
:104A500000D1E0E0129B0AA8D968FDF7F2FA129B98
:104A60000C9A02939B8A06990B980BF0ADFC2CE1F3
:104A7000238B012221000AA8042B08D1FDF7FEFA9E
:104A80000D9B029A9A4200D20293A468CAE7FEF7ED
:104A9000A3FF238D9D42F3D2E26AEB00D118D35CD1
:104AA000012B02D1200014F024FE0135F1E704218E
:104AB000E28A0A4215D0218D01394A1C11D0022503
:104AC000E06ACA0082185078284225D0002B08D00E
:104AD000596815008C46186842CD42C36346106081
:104AE000536000252584238D04939D421ADB002307
:104AF0000120049A9A4244D16568002D0AD0002210
:104B00002B8D0893130008998A4249DB0022012566
:104B1000934275D1A4688BE7002BCDD10128CBD16E
:104B20001300C9E7E36AEE009E192378012B04D134
:104B300073680A2B10D10135D5E73278012B0BD9D8
:104B4000012A09D103233370238B032B13D01022A6
:104B5000E38A1343E38202E03378032BF4D0337803
:104B6000042B03D0012273781342E4D0238C5A1C07
:104B700022847380DFE7706809F01EF90128EEDCFB
:104B8000E5E7E16ADA008D188A5C052A06D16A78C1
:104B9000024203D1228C6A80013222840133A8E7C9
:104BA000E96AD0000E18095C07960539012917D863
:104BB000002112E0E66AC800B4468444305C06284E
:104BC0000AD10798406809906046099E406886426D
:104BD00002D1604643800133013104988842E9D113
:104BE000013290E7E06AE66AD1004018715C06295C
:104BF00002D14178294202D04188C918418001324E
:104C000004999142EED1628B9BB29A186283228CF6
:104C10009B1823847EE7238B042B1BD1159B0493C5
:104C2000002B03D1029801F04FFA15900023139343
:104C3000224B032221000AA81693FDF71FFA0B9BB3
:104C40000493002B04D1042221000AA8FDF716FAD0
:104C5000A468F8E6023B012B24D8002D06D1029B64
:104C60000DAA0BA917A803F0D9FE0500144B139544
:104C70001493022221000AA8FEF7AEFE0B9B0493B8
:104C8000002BE5D1032221000AA8FEF7A5FE0B9B0D
:104C9000002BDDD1042221000AA8FEF79DFE00288A
:104CA000F8D0D5E7039B1393034B1493E1E7C04679
:104CB000DC480020084D0020049C0310989E03103F
:104CC00060A10310002B00D0C4E6019B0B9E1B6962
:104CD0000293002E19D0039800F015FD002D40D14D
:104CE0001598002801D001F004FA059834F05CFA18
:104CF00001988368019314F0B9FC019B002BF7D154
:104D00000B98002831D009F0E7F8199BDC08640003
:104D10001E9B0334A008C0188000049304F0C8FD53
:104D200003239C430419FC601B991A9CB860A6429B
:104D30000AD100231E998B42CDD01F989A0080582B
:104D4000FC680133A050F6E70A68002A06D0042A5E
:104D500004D04B68D2085B105B001A520136083150
:104D6000E5E7280003F07BFEBAE73900019A0298D4
:104D700000F08CFD21B0F0BD4379012B07D0836892
:104D8000C918036981605A8C914200DD59847047CB
:104D9000002383714379012B03D0C26A036A89001F
:104DA000CA507047042110B54942FFF7E5FF10BD16
:104DB00010B50421FFF7E0FF10BD032110B54942F3
:104DC000FFF7DAFF10BD0300406A5A794118032A41
:104DD00002D81800596270475A6B1018FAE78279A6
:104DE0000300002A01D018007047C06A5A794118A0
:104DF000032A01D8D962F6E79A6AD96280185A6BF9
:104E00001018F1E710B50C000121FFF7E8FF04705E
:104E100010BD70B504001500FFF7AEFF01212000A2
:104E2000FFF7DDFF057070BD10B553220121FFF7BC
:104E3000F0FF10BD10B554220121FFF7EAFF10BDAD
:104E400010B557220121FFF7E4FF10BD10B558221D
:104E50000221FFF7DEFF10BD012110B559224942A2
:104E6000FFF7D7FF10BD10B55A220021FFF7D1FF81
:104E700010BD10B55B220021FFF7CBFF10BD012153
:104E800010B55D224942FFF7C4FF10BD5E2210B588
:104E9000002901D003215F22FFF7BBFF10BD0A00EC
:104EA00010B5303A0021D2B2FFF7B3FF10BD022196
:104EB00010B562224942FFF7ACFF10BD012110B5C9
:104EC000632249420400FFF7A4FF0123A37110BD30
:104ED0000A00643210B5D2B249420400FFF799FFCC
:104EE0000123A37110BD0A0010B504006732D2B2CD
:104EF0004942FFF78EFF01232269D18A0B43D382F7
:104F000010BD000070B51D000400FFF782FF2A00ED
:104F100020000249FBF7FEFD70BDC046DF4D0010CA
:104F200070B50D0004001900C068160000F028FCE0
:104F30003200030029002000FFF7E4FF70BD10B528
:104F40000B0010220121FFF7EBFF10BD10B511324D
:104F50000B000121D2B2FFF7E3FF10BD10B5012411
:104F60000B005100611A541EA2411432FFF7D8FF02
:104F700010BD0B00012110B51632D2B24942FFF725
:104F8000CFFF10BD10B519320B000021D2B2FFF7D0
:104F9000C7FF10BDF8B5C4681D0026786388042ECD
:104FA00002D167689E00F5515D1C6580FFF7AAFF7E
:104FB000F8BD110010B52833DAB20B000021FFF75D
:104FC000A1FF10BD10B501240B002100022A00D062
:104FD000E11A2A32D2B2FFF795FF10BD10B50024B6
:104FE00013002200032905D001342200042901D036
:104FF00000240132E3189B001343E1432F22FFF703
:1050000081FF10BD10B50B0030220139FFF77AFF88
:1050100010BD10B513020B4389183122FFF772FF40
:1050200010BD0B0010B5012A07D0022A0BD10121B7
:1050300067324942FFF7EDFE10BD11001B32D2B2BC
:10504000FFF76EFFF8E701214942F7E7F7B50600E1
:1050500017000193FFF790FEB279002A20D17379EF
:1050600014000125022B10D9F16A019B023C641A3D
:10507000316A9B005B58E418442F12D82300403358
:1050800002DB3F2C00DC1500641B3000A91CFFF77D
:10509000A6FE0770002D09D1442F00D8403444707B
:1050A000F7BD7F25A542AD416D42EDE7442F02D803
:1050B0008023DB01E4187379042B06D180231B02C3
:1050C0009C4202D301233836337080235B42234352
:1050D000E41143708470E3E710B50B004222002115
:1050E0000400FFF7B3FF0123A37110BDF8B5174FFC
:1050F00005000C0016000F40002A19D10B040ED534
:105100005921FFF77FFE59212800FFF77BFE592127
:105110002800FFF777FE59212800FFF773FE3B00B8
:10512000422200212800FFF791FF0123AB71F8BD57
:105130003B0040220021FFF789FF7F23210A99438A
:1051400031432800C9B2FFF75DFEEEE7FF7FFFFFA6
:105150000B0010B55442544147326100D2B2FFF700
:1051600075FF10BD10B50B004B220121FFF76EFF3C
:1051700010BD10B50B004A2200210400FFF766FFA6
:105180000123A37110BD00008023F7B5224A9B00C4
:10519000D35805000191022B29D88769B94226D935
:1051A000C36A4269CF1B9C1A062F01D90F2C1FD945
:1051B00000941F2C01D91F230093009B0026A342BB
:1051C00003D33E00032F00D9032601212800FFF757
:1051D000FAFD009A730113430370009BBF1BE41A8E
:1051E00023003B43E0D1EB6A6B61019BAB61F7BDF0
:1051F00080233E001B019F4200D3084E022128005D
:10520000FFF7E1FD7022330913402343F03A1343C3
:10521000037046700094E0E7084D0020FF0700008F
:1052200010B50400002905D1552201392000FFF7EF
:10523000F0FD10BD022904D1FFF7F6FD2000FFF7B5
:1052400018FE032156224942F0E7130010B543220D
:10525000002900D1442201214942FFF7F7FE10BD89
:10526000130010B54522002900D1462201214942F0
:10527000FFF7ECFE10BD70B50400322913D00025F5
:10528000332901D101352C392939CAB20121200035
:105290004942FFF7BEFD002D04D0D322002120009B
:1052A000FFF7B7FD70BD01250621EDE770B50D00D4
:1052B0000400111E05D12B0013222000FFF730FE41
:1052C00070BD022A04D1FFF7AFFD2000FFF7CBFD30
:1052D00002212B0018224942EFE7110010B5002BE4
:1052E00007D10F2A05D8503A0121D2B2FFF791FD1C
:1052F00010BD2433DAB20B000121FFF703FEF7E7FC
:10530000110010B5002B08D10F2A06D80121403A10
:10531000D2B24942FFF77DFD10BD2633DAB20B0051
:1053200001214942FFF7EEFDF6E770B5049DD2B2C8
:105330006C002D02E4182B43059D002D02D0013294
:10534000D2B20134091BFFF7DDFD70BD07B5019333
:1053500000920B0034220021FFF7E7FF07BD13B5D1
:105360000124019300920B0036226142FFF7DDFF1A
:1053700013BD10B50400C06800F019FA2322030021
:1053800001212000FFF7BEFD10BD0B001033F7B563
:1053900006000D003F2B06D80A00803A0121D2B248
:1053A000FFF737FDF7BD01212222FFF732FD6B46E3
:1053B0005C1D21007F202F0022000740EBB2013C42
:1053C000ED1127706F1C012FF5D840273B400135A8
:1053D00014D1002B02D1013C2070941E3000091B17
:1053E000FFF7FDFC80260200230001AD7642AB42B0
:1053F0000AD16A4612791B1BC254D3E7002BEDD0A9
:105400000023013C2370E8E7197801333143117020
:105410000132ECE770B5040018000B690499D5B2AD
:1054200008430AD10121891A20222000FFF7B2FD8A
:1054300029002000FFF7E6FC70BDD1432122F4E7EC
:1054400010B51C000B69224304D101213232FFF751
:10545000A1FD10BD012133224942F8E710B5040037
:105460000E290AD10849C06800F0A1F923220300DF
:1054700001212000FFF746FD10BD4131CAB20121D4
:10548000FFF7C7FCF8E7C0461CCD031070B5040059
:105490000D001021FFF7E2FF29002000FFF778FC44
:1054A0005C2220000221FFF7B4FC042120004942C5
:1054B000FFF762FC70BD000070B543790400012B5A
:1054C00001D1012033E00025C26B436A05649B1AB9
:1054D000C3632069038D9D420BD36379032B19D1DC
:1054E000606AE36AA0622363C01804F000FA606394
:1054F000E7E7C26AEB00D118D35C052B08D18E78A0
:1055000020000121FFF75FFC0670236C0133236448
:105510000135DEE7042BD4D1626AA16AE36A8A42CC
:1055200002D1216B994203D00020A262236370BD97
:10553000230038331B78002B03D00649064812F0AD
:10554000E1FEE268C38A5268616B006900F082F98B
:10555000B7E7C046F09B0310D0C00310F0B541710F
:1055600087B001000023019202610122383183607B
:1055700083714361C362436282610B70019B0600C9
:105580001F8C5B8CFF18002F00D11700019B013F7F
:10559000998CDA8A0F231A40019B03925D8B9B8BB7
:1055A00078220493019B8C00DB8B059304231C4021
:1055B000013B2B401C43FB0013401C434B083F099D
:1055C0000293AD08029B039A3B431343049A2B4377
:1055D0001343059A01213000134337D1FFF7F3FB42
:1055E00004707379022B17D9F56B376C7E236C002E
:1055F0001C407D3B3B407F081C433B00AD092B43D7
:10560000029301D080231C4301213000FFF7DBFB14
:10561000029B0470002BE9D1736AF068F363019B6D
:105620000024998A00F0ACF82E4D020029003000C9
:10563000FBF770FA0127019B019A5B8B928B9B18F9
:10564000A3424DDD019B0022198D45E0FFF7BBFB16
:1056500080235B421C43039B04709C014023302247
:105660001C403B0113401C430123059A13400822B0
:105670001C43049BDB0013401C43043AAB00134063
:105680001C43029B023A5B0013401C43029BD74021
:105690005B080293039B6D085B080393049B5B0804
:1056A0000493059B5B0805938CE70198D300C06ABF
:1056B0000290C318587838420DD05888A0420AD1B9
:1056C0005968F06800F05CF8290002003000FBF730
:1056D00021FA0134AFE701329142E6DC0521F0E71F
:1056E00007B0F0BDC74D001010B50400442004F011
:1056F000FEF8C46010BD10B50400C161880004F05C
:10570000D7F8206210BD10B50400006A04F004F957
:10571000200004F001F910BDF8B504000D00884226
:1057200001D10120F8BD144B984201D10020F9E7C6
:105730009942FBD008F006FC0600280008F002FCA5
:105740008642F3D10D4B9E4211D163686A68934241
:10575000ECD1082600276368BB42E2D9A959A059B9
:10576000FFF7DAFF04360028E0D00137F3E729001D
:10577000200008F0A3FED5E748B5031058D6031063
:10578000CB00022110B5194304000122083004F0B7
:1057900001F94368002B06D10122A368DB08013B15
:1057A0005B00134343604068401080B210BD70B589
:1057B00005000E000024EB69A34208D82800310040
:1057C00014300CF069F9EC69013C200070BD2A6AC4
:1057D000A30031009858FFF79FFF0028F5D101344E
:1057E000E9E710B50122040013F059FF0378012BFB
:1057F00004D12378012B02D90423037010BD0223A6
:10580000FBE770B505000E00100019001C0013F036
:1058100036FF03785A1E012A05D80022736821003A
:105820002800984770BD032B02D101227368F6E768
:1058300036684288042B04D1002321002800B04799
:10584000F0E70123F9E710B5102004F050F8012328
:10585000837010BD10B502248470013C2340C370D6
:105860004160826010BD8170012110B502AB10CB88
:1058700042601B8884600B40C370049B0373059BCC
:105880001A02C368DBB21343C36010BDF8B504004D
:105890006378100022781B020D00134317D00027F5
:1058A00000230A0021000BF0EFF9012539002378CD
:1058B0005BB27E1C002B03DB294225D01D4B19E077
:1058C000A35D9A112A40BA4037001143F0E7A3784C
:1058D0006668042B10D0052B17D0032B20D10A00AB
:1058E000A36831000BF0D0F9134B0360E378002B71
:1058F0000AD0124B036007E010201149A46808F099
:1059000014FBC66045608460F8BD10200D49257BFE
:10591000E46808F00AFB240A45608660C460F3E787
:105920000A00A36831000BF0AFF9E378002BEBD04D
:10593000C4E7C046D4C4031068C30310F0C4031006
:1059400088C30310B8C2031070B51D008023140073
:105950005B001A401C4200D02A00FFF797FF022389
:10596000E2091A409A40E1B2AA1809F0C5FB70BDDD
:10597000F0B585B004000D00100003A91E0033F03F
:10598000EBFB002809D12A000B490C480AF0DCFC8B
:10599000636A1860002005B0F0BD039808F09EFB14
:1059A0000300B343F7D003002A00054900960348DB
:1059B0000AF0CAFCECE7C046D89C03103CC10310B7
:1059C000F09C031070B5038CC46A032B03D1002331
:1059D000856A9D4205D18B00E250FAF79CFD0120BB
:1059E00070BD9E00A659964201D00133F1E7002018
:1059F000F6E710B5FAF7E6FD10BD8BB270B50500FD
:105A00000C0003844262032B05D1836A0021C06A23
:105A10009A0031F047FD211F4B42594128000131C6
:105A2000FAF751FD28000021FAF7A0FD70BD000033
:105A30000F2370B513400400022B09D00A00104850
:105A400010490AF081FC0025636A1860280070BDC7
:105A50000025836A12099D420AD1238C0025042B5C
:105A6000F4D1094906480AF06FFC636A1860EDE753
:105A7000E06AA90009588A42E8D00135EBE7C04640
:105A80003CC103101B9D0310309D0310F8B51E0090
:105A90000F2304000D001B481340022B02D11009F4
:105AA00011F097FF0378184A1F0000235178B9427C
:105AB0001DD141788C4691788C4518D181788C46DF
:105AC000D178614513D100290ED10F4A9B00D05CDB
:105AD000B04208D933002A000C490D480AF034FCC2
